:020000040800F2
:10000000180500200101000867140008F312000819
:10001000651400089101000849170008000000005D
:10002000000000000000000000000000A116000811
:1000300093010008000000006D140008A3160008DA
:100040001B010008691400081B010008C115000805
:10005000BB0100086F1400081B0100081B01000809
:100060001B0100081B0100081B0100081B01000800
:100070001B0100081B0100081B0100081B010008F0
:100080001B0100081B0100081B0100081B010008E0
:100090001B0100081B0100081B010008B301000838
:1000A0001B0100081B0100081B0100081B010008C0
:1000B0001B0100081B010008000000001B010008D4
:1000C0001B01000800000000000000001B010008E8
:1000D000000000001B0100081B01000800000000D8
:1000E00095010008711400081B010008DFF80CD00E
:1000F00000F03CF800480047C5180008180500202B
:100100000648804706480047FEE7FEE7FEE7FEE7B1
:10011000FEE7FEE7FEE7FEE7FEE7FEE70117000861
:10012000ED0000080649074A0868504343F23902C7
:10013000104408604008704701490860704700009B
:10014000200000206D4EC641D2B201E000F8012B24
:10015000491EFBD270470022F6E710B513460A4647
:1001600004461946FFF7F0FF204610BD064C074D28
:1001700006E0E06840F0010394E807009847103477
:10018000AC42F6D3FFF7B6FF8C200008AC20000885
:10019000FEE7704710B54FF4806000F025F94FF48A
:1001A000006000F021F9BDE810404FF4805000F0ED
:1001B0001BB94FF4007000F017B900F063B80000ED
:1001C000064A0021D16106490A6942F002020A6129
:1001D0004861086940F0400008617047F80000205D
:1001E00000200240044B0022DA61044A136943F004
:1001F0000103136101807047F800002000200240D5
:1002000014480022C168CB06134904D5CA6942F0DC
:100210000202CA611022C3685B0705D5CB6943F0AF
:100220000103CB6142F00402C369DB0707D0CB694D
:1002300043F00403CB61C16921F00101C161A2F562
:100240008071013901D0C2607047C16921F001019C
:10025000C161704700200240F800002070B50446DC
:1002600000F0B4F90546601C02D00448007804444C
:1002700000F0ACF9401BA042FAD370BD1000002082
:10028000704700002DE9F0413E4DE8683E4CC00645
:100290004FF0FF374FF0000602D4E868400708D55A
:1002A000D4F80880A760FFF7ABFF404600F06EF877
:1002B0002670E868800653D52020E8602078F8B1E1
:1002C000207801281DD02078022833D06068401E95
:1002D00060606068B0B3A068801CA060A0682169FD
:1002E0006269090C41EA0241120C216162612969CB
:1002F00021F0010129612169626989B2FFF772FF6A
:100300002EE06068401E6060606868B1A068FFF71A
:10031000B7FFA06800F58060A060296921F00201A4
:100320002961FFF74DFF1BE03846A7602670FFF7F5
:10033000A7FF15E0286920F0040028610020FFF7DE
:100340009FFF0CE0FFE72078032817D020780428CF
:10035000A06815D0B0F10600FFF792FFA7602670E5
:100360002078002808D1286920F007002861286932
:1003700020F4A05028612676BDE8F081A068EBE764
:10038000801EE9E700200240F800002070470000CE
:1003900070B5044600F01AF9124D6968401AB0F5BC
:1003A000967F1EDD00F012F96860B4F5007F0CD076
:1003B000B4F5806F0DD0B4F5006F0ED0B4F5805F4A
:1003C0000FD1BDE8704001F029BBBDE8704001F0DD
:1003D00017BBBDE8704001F0D1BDBDE8704001F031
:1003E0000BBE70BD00000020044910B50A6802422F
:1003F00002D00860FFF7CCFF10BD000014040140DC
:100400002DE9F84FDFF89C91002409F1040A0AF164
:10041000040B23460F270BF1040EBBE00125A5407A
:100420002A40AA4276D1DFF880C14E68A6EB0C08BC
:1004300066452BD00DDC032E34D005DC36B3012EFF
:1004400019D0022E2FD11BE0112E16D0122E2AD138
:1004500019E0B8F5881F19D006DCB8F5803F15D033
:10046000B8F5801F1FD111E0B8F5001F0ED0B8F508
:10047000041F18D10AE0CB6815E0CB681B1D12E001
:10048000CB6808330FE0CB680C330CE08B682BB1E2
:10049000012B4FF0080303D0456104E0042302E080
:1004A000056100E00023FF2A01D8064601E000F1C3
:1004B00004064FEA840501D9A5F12005D6F800808D
:1004C00007FA05FC28EA0C0803FA05F548EA0508CE
:1004D000C6F800804D68ED005BD5344DAE6946F03E
:1004E0000106AE61AD6924F0030605F00105009533
:1004F0002F4D06EB050CDCF80850A607360F07FA5F
:1005000006F825EA0805DFF8AC80404503D14FF036
:10051000000810E03DE0DFF8A080404502D14FF038
:10052000010808E0DFF89480404502D14FF002084E
:1005300001E04FF0030808FA06F848EA0508CCF88D
:1005400008804D68D9F80060ED034D4601D516438B
:1005500000E096432E604D68DAF80060AD03554622
:1005600001D5164300E096432E604D68DBF800602D
:10057000ED025D4601D5164300E096432E604D68BE
:10058000DEF80060AD02754601D5164300E09643E3
:100590002E60641C0A6832FA04F57FF43FAFBDE8B0
:1005A000F88F00000004014000001110001002400C
:1005B0000000014000080140000C01400010014013
:1005C0000AB1016170470904FBE700000148806837
:1005D0007047000010000020024881680278114432
:1005E0008160704710000020074810B5016841F095
:1005F00010010160032000F08DF8002000F006F8E3
:1006000000F024F8002010BD0020024070B50D4D10
:1006100004464FF47A712878B1FBF0F00A49096872
:10062000B1FBF0F000F051FE48B9102C07D20022C7
:100630002146501E00F04EF800206C6070BD012075
:1006400070BD0000100000201C000020184808B5F4
:10065000816941F001018161816901F0010100912D
:10066000C16941F08051C161C069002200F0805031
:1006700000901146012000F02DF8012000F01CF838
:1006800000221146042000F025F8042000F014F8A0
:1006900000221146052000F01DF8052000F00CF89E
:1006A0000448416821F0E06141F08061416008BD8B
:1006B0000010024000000140002809DB00F01F028A
:1006C000012191404009800000F1E020C0F80011B4
:1006D00070470000F0B40E4B1B680C46C3F30223B6
:1006E000C3F10705042D00D90425191D072901D2DE
:1006F000002300E0DB1E012606FA05F1491E214019
:1007000099409E40761E16403143F0BC01F01DB862
:100710000CED00E0064900F0070208684FF6FF0301
:10072000184040EA0220034A104308607047000066
:100730000CED00E00000FA05014901200862704755
:1007400000000E427047000010B5054C2068C00341
:1007500004D5FFF7F7FF4FF48030206010BD000094
:100760001404014010B529A401461DCC86B08DE8C3
:100770001D002AA02A4C006804900020012923D0E3
:1007800002293AD010291DD161682268D20119D5F9
:10079000C1F38342C9031DF8020009D5616804AAA8
:1007A000C1F34041515C1F4AB2FBF1F1484301E003
:1007B0001D4948436168490204D440005FF00301C9
:1007C000B0FBF1F006B010BD226AC2F3012101298D
:1007D00003D1920701D5C803F4E7022905D1626A63
:1007E000920702D549F64040ECE70329EAD1216897
:1007F0008903E7D54FF22440E4E700F023F961686C
:10080000C1F38131491C4900DAE700000203040505
:10081000060708090A0B0C0D0E0F1010010200004C
:100820000010024000127A0000093D002DE9F84353
:1008300005460078354CC00754D0E0690026C0005A
:1008400008D4E06940F08050E061E069012600F0E2
:10085000805000902E480168C90512D40168804676
:1008600041F480710160FFF7B1FE074605E000BF6B
:10087000FFF7ACFEC01B642823D8D8F80000C005E1
:10088000F6D5206A10F4407021D0A98801F4407197
:1008900081421CD0206A1F49012220F440700A6066
:1008A00000220A602062C00711D0FFF78FFE0746C2
:1008B00041F2883808E000BFFFF788FEC11B4145C0
:1008C00002D90320BDE8F883206A8007F4D5206AA6
:1008D000696820F44070084320621EB1E06920F08E
:1008E0008050E0612878800705D56068A96820F409
:1008F0004040084360602878C00605D56068E96814
:1009000020F48000084360600020DBE70010024014
:1009100000700040400442422DE9F0470F460500B8
:1009200061D0434E306800F00700B84209D2306809
:1009300020F0070038433060306800F00700B8420C
:1009400051D128683B4C810712D5400703D5606818
:1009500040F4E06060602878000703D5606840F4E8
:10096000605060606068A96820F0F0000843606033
:100970002878C00728D06868012810D0216802288C
:1009800010D0890700292EDA616821F003010143A4
:100990006160FFF71BFE804641F288390DE0216857
:1009A0008903EFE78901EDE7FFF710FEA0EB0801EF
:1009B000494502D90320BDE8F0876068696800F006
:1009C0000C00B0EB810FEFD1306800F00700B842A7
:1009D0000BD9306820F0070038433060306800F0F1
:1009E0000700B84201D00120E5E72878400705D587
:1009F0006068E96820F4E0600843606028780007D8
:100A000006D56068296920F4605040EAC100606042
:100A100000F028F86168084AC1F30311515CC8402E
:100A20000649086006480068FFF7F0FD0020C2E7AD
:100A30000020024000100240742000081C0000202A
:100A4000140000200448054900684968044AC1F3BD
:100A5000C221515CC84070471C00002000100240B9
:100A60008420000812A185B00FC98DE80F0014A0E2
:100A7000144A006804905168134801F00C03042BD9
:100A800010D0082B0ED1C1F38343C9031DF8030016
:100A90000AD5516804AAC1F34041515C0A4A504347
:100AA000B0FBF1F005B0704708494843FAE7000091
:100AB00002030405060708090A0B0C0D0E0F10109F
:100AC000010200000010024000127A0000093D00FF
:100AD0002DE9F84F040070D02078C04DC00749D0F0
:100AE0006868C0F38100012807D06868C0F38100FE
:100AF000022809D16868C00306D52868800339D563
:100B000060680028E7D035E06068B0F5803F0BD022
:100B100010B1B0F5A02F11D0286820F480302860E3
:100B2000286820F4802002E0286840F480302860A3
:100B3000606890B1FFF74AFD06460AE0286840F475
:100B400080202860F0E700BFFFF740FD801B64288D
:100B500073D828688003F7D50CE0FFF737FD064609
:100B600005E000BFFFF732FD801B6428F0D828683D
:100B70008003F7D420789A4E80074FF001094FF098
:100B8000000839D5686810F00C0F07D06868C0F30A
:100B90008100022809D16868C00306D4286880074C
:100BA00014D52069012808D110E02069B0B1C6F839
:100BB0000090FFF70BFD074605E00AE1FFF706FD91
:100BC000C01B0228C4D828688007F7D52868616947
:100BD00020F0F80040EAC10028600DE0C6F800806F
:100BE000FFF7F4FC074604E0FFF7F0FCC01B022807
:100BF00023D828688007F7D4207800072CD57948B7
:100C0000A169D9B1C0F80090FFF7E0FC074604E005
:100C1000FFF7DCFCC01B02280FD8686A8007F7D5F5
:100C200071484FF4FA510068B0FBF1F0009000BF3A
:100C30000098411E0091FAD20EE080E0C0F80080DA
:100C4000FFF7C4FC074604E0FFF7C0FCC01B022806
:100C500075D8686A8007F7D42078400760D5E869BE
:100C60000027C00008D4E86940F08050E861E869D6
:100C7000012700F0805000905C480168C90513D43A
:100C80000168834641F480710160FFF79FFC824652
:100C900006E000BFFFF79AFCA0EB0A0064284ED8DC
:100CA000DBF80000C005F5D5E06801280AD008B1DE
:100CB000052813D0286A20F001002862286A20F055
:100CC000040002E0286A40F001002862E06841F276
:100CD000883B98B1FFF77AFC82460BE0286A40F027
:100CE00004002862EEE700BFFFF770FCA0EB0A01EA
:100CF00059455AD8286A8007F6D50CE0FFF766FCFC
:100D0000824605E0FFF762FCA0EB0A0159454CD88A
:100D1000286A8007F6D41FB1E86920F08050E861A6
:100D2000E06988B36968C1F38101022944D00228CF
:100D3000C6F8608004D0FFF749FC044638E034E090
:100D4000FFF744FC074604E0FFF740FCC01B022805
:100D50002BD828688001F7D4206AB0F5803F05D1F0
:100D60006868A16820F4003008436860D4E908018D
:100D70000843696821F4741108436860C6F86090FC
:100D8000FFF724FC044606E025E000BFFFF71EFC49
:100D9000001B022809D828688001F7D51BE000BF96
:100DA000FFF714FC001B022802D90320BDE8F88FCE
:100DB00028688001F4D40EE00128F7D06868226A20
:100DC00000F48031914204D1616A00F470108842CD
:100DD00001D00120EAE70020E8E70000001002400F
:100DE00000004242800442421C000020007000408B
:100DF0007047704710B5044600680168C90716D0EF
:100E00004168C90713D040684007204607D5FFF75F
:100E1000F0FF21686FF004004860042002E0FFF753
:100E2000E7FF0120607421686FF00100486010BD89
:100E30007047000010B5044600680168890709D5AD
:100E40004068800706D52046FFF7F2FF21686FF063
:100E50000200486003494FF40030086001206074CC
:100E600010BD0000140401402DE9F04791460C46E6
:100E70005FEA00084AD084B3D8F800004068400711
:100E800044D4404600F0A9FB4FF461620546B0FB34
:100E9000F2F1B0FBF2F302FB13503C23B0FBF3F092
:100EA000B5FBF2F6607002FB1650B0FBF3F203FBE9
:100EB0001200A070182931D31820B1FBF0F7B1FB54
:100EC000F0F200FB12102070404600F07FFB411C46
:100ED00004D0A84202D9461B02E017E04FF0FF36CB
:100EE000A7EB071000EB4000C0EB001005EBC015AE
:100EF0002946404600F0C0FB40B9701C01D0711972
:100F000000E03146404600F0A3FB10B10120BDE8EF
:100F1000F0873946404600F0C5FA00E02170B9F18B
:100F2000000F0BD0207800F0B2FA2070607800F04B
:100F3000AEFA6070A07800F0AAFAA0700020E6E790
:100F400070B5040003D0607C002610B105E00120DC
:100F500070BD2674204600F043F8022060742046DD
:100F600000F096F9042578BB204600F0F2FA58BB51
:100F70002068416821F007014160A06820B117484E
:100F8000016821F0010101601448001F0168A26896
:100F900021F46071114301606068411C04D101209B
:100FA000FFF7E0FB80B1401E21688A6822F00F0243
:100FB00042EA10428A602168CA6860F30F02CA6080
:100FC000204600F0E1FA08B16574C0E7E67301203D
:100FD0006073A0736074002070BD0000306C00402E
:100FE00008B50068114988421FD1FFF7A5FB1048DA
:100FF000C16941F00061C161C0690E4900F0006043
:10100000009001200860002211460320FFF762FBD8
:101010000320FFF751FB002211462920FFF75AFB5E
:10102000BDE808402920FFF747BB08BD0028004065
:10103000001002403C0442422DE9F8434FF0000604
:1010400017460D46040000960FD075B1207C01288C
:101050000ED04FF0010984F8109002206074002235
:1010600069462046FFF700FF20B10120BDE8F88364
:101070000220FBE79DF800004FF4616148439DF8B2
:101080000110C1EB011100EB81009DF8021000EB93
:1010900001082878E7B100F0F1F94FF4616100FB35
:1010A00001F7687800F0EAF9C0EB001007EB800761
:1010B000A87800F0E3F93918414501D216480144F7
:1010C000204600F0C5FA70B1042060742674CCE7A5
:1010D0004FF4616148436978C1EB011100EB810075
:1010E000A9780144E8E721686FF0020048602068B1
:1010F000016841F0020101600848016841F40031D3
:10110000016006480830016841F40031016084F84C
:10111000119026740020A9E78051010000040140CD
:101120002DE9F0410D4604003BD0C5B3207C0128D9
:101130003AD04FF0010884F8108002206074E878FB
:1011400072B300F09BF9E073687800F097F9607370
:10115000A87800F093F9A073C2B2617BE07B00F045
:101160004CFA20732870204600F037FA4FF4616182
:10117000B0FBF1F1002518292DD91822B1FBF2F1AD
:10118000A1EB011101EB4101C1EB011100EBC11613
:101190003146204600F070FA0427C8B90BE000E0A1
:1011A00004E00120BDE8F0810220FBE7E0736878ED
:1011B0006073A878CFE7204600F008FA411C0AD0F7
:1011C000B04208D206490144204600F041FA10B16D
:1011D00067742574E5E784F8118025740020E1E741
:1011E000805101002DE9F0410D46040024D01DB3CB
:1011F000207C012823D04FF0010884F810800220C1
:1012000060742878EAB100F039F94FF4616100FBAD
:1012100001F6687800F032F9C0EB001006EB8006AA
:10122000A87800F02BF935182946204600F024FA5A
:101230000026042710BB0FE00120BDE8F08102204A
:10124000FBE74FF4616148436978C1EB011100EBA2
:101250008100A9784518E7E72068416821F0050179
:101260004160204600F0B2F9411C0AD0A84208D2E1
:1012700006490144204600F0EBF910B1677426746A
:10128000DAE784F8118026740020D6E78051010047
:1012900070B504000AD02068416821F0080141605F
:1012A000FFF794F905464FF47A7608E0012070BD07
:1012B000FFF78CF9401BB04201D9032070BD2068B4
:1012C00040680007F4D5002070BD10B5401EB0F195
:1012D000807F01D3012010BD4FF0E02460610F2119
:1012E000601700F032FA0020A06107202061002082
:1012F00010BDFEE72DE9F04F85B00024374800947B
:10130000019402940394816941F010018161816923
:1013100001F010010491816941F00401816181694A
:1013200001F004010491816941F008018161806943
:10133000DFF8ACB000F0080040F2FF150490002286
:1013400029465846FFF73CF9DFF898904FF6FE77AC
:10135000002239464846FFF733F9DFF88CA04FF6F4
:10136000FF78002241465046FFF72AF90126CDE9D1
:101370000056022569465846CDE90245FFF740F878
:10138000CDE9007669464846CDE90245FFF738F8D1
:10139000CDE9008669465046CDE90245FFF730F8B1
:1013A0004FF4F05000901148CDE9010569465846C8
:1013B000FFF726F8002211461720FFF78BF91720B8
:1013C000FFF77AF9002211462820FFF783F9282039
:1013D000FFF772F905B0BDE8F08F00000010024081
:1013E0000010014000080140000C014000001110F5
:1013F0001FB500241A4803940294009417490194DD
:101400000160611E41604FF480718160FFF798FDBB
:101410008DF80C408DF80D408DF80E40012203A987
:101420000F48FFF7DFFE01208DF808008DF8090056
:101430008DF80A0002468DF80B4002A90848FFF714
:101440006FFE8DF800408DF801408DF802400122BA
:10145000694603480194FFF7EFFD1FBD00280040D7
:1014600024000020FEE77047FFF76EB97047704711
:101470000148FFF7DFBC000024000020010901EB58
:10148000810100F00F0000EB4100C0B27047002165
:1014900002E00A38C0B2491C0A28FAD2090740EA19
:1014A000116070472DE9F04104460025C07B627B46
:1014B000A37B42E0012A16D0032A14D0052A12D0B9
:1014C000072A10D0082A0ED00A2A0CD00C2A0AD0DB
:1014D000042A10D0062A0ED0092A0CD00B2A0AD0D2
:1014E000022A0DD028E01F2B0CD30C2A05D1012293
:1014F0001346401C20E01E2B04D30123521C1BE08A
:101500001C2B02D203F1010316E011D183B29E0716
:1015100010D16426B3FBF6F706FB173636B94FF445
:10152000C876B3FBF6F706FB17331BB91D2303E0A0
:101530001D2B01D1032201236D1C8D42BAD3D1B2E0
:10154000E0736173DAB2A27300F057F82073BDE85C
:10155000F08170B50446FFF739F805464FF47A7606
:1015600006E0FFF733F8401BB04201D9032070BDFD
:10157000206840688006F4D52068416841F0100179
:101580004160002070BD000070B5044600684168ED
:1015900021F010014160FFF719F805464FF47A7603
:1015A00007E000BFFFF712F8401BB04201D903204B
:1015B00070BD206840688006F4D5002070BD000032
:1015C0000148FFF717BC0000240000200168086AEA
:1015D000496A89B241EA00407047006881698AB26D
:1015E000C1698BB2816989B28A4203D0C06961F353
:1015F0001F40704743EA02407047F0B56424C1EBD6
:10160000C1030927A500072603EB01130329B3FB38
:10161000F7F100F5FA60114401440AD2401EB0FB14
:10162000F4F201EB9001B0FBF5F0891A0844001DBB
:1016300008E0B0FBF4F201EB9001B0FBF5F0891A81
:101640000844801CB0FBF6F106FB1100C0B2F0BDEF
:1016500070B50D4606460024FFF77BFF48B9316898
:10166000280C08623168A8B248623046FFF78CFF48
:1016700000B10124204670BD70B50D460646002419
:10168000FFF767FF48B93168280C88613168A8B254
:10169000C8613046FFF778FF00B10124204670BDD5
:1016A0007047FEF799BF30B593B028216846FEF722
:1016B00052FD14210AA8FEF74EFD002401250F94C7
:1016C0000A200090102010941194CDE90450CDE927
:1016D000065412946846FFF7FBF90F20CDE90A047F
:1016E0000C940D9400210AA80E94FFF715F96802D6
:1016F000CDE90F500FA8FFF799F813B030BD0000E7
:101700000D48016841F00101016041680B4A114038
:10171000416001680A4A11400160016821F480219A
:101720000160416821F4FE0141604FF41F018160B6
:101730000449C00308607047001002400000FFF831
:10174000FFFFF6FE08ED00E0FEE70907090E00289E
:1017500004DB00F1E02080F80014704700F00F0077
:1017600000F1E02080F8141D704702E008C8121F45
:1017700008C1002AFAD170477047002001E001C17A
:10178000121F002AFBD1704770B50C4900200124BC
:10179000A1F1A00551F83020531C0AD001EBC00381
:1017A0005B685E1C05D002EB820205EB820242F808
:1017B0002340401C0428EDDB70BD0000D800002051
:1017C0002DE9F0413D4C00202060FEF7ABFC0623E4
:1017D00090FBF3F103FB1106394807270222E6606C
:1017E000D41EA0F1A00126B3052E22D04FF0050C87
:1017F000012E2CD00325022E3BD0D1F89440032E8D
:1018000049D0ACB3D1F8804094B3D1F884407CB3D4
:10181000D1F8981061B3076000F10C01C0E9012311
:1018200081E8AC00C0F81C5000F07AF80020BDE858
:10183000F081D1F89450DDB1D1F88010C1B10760CA
:10184000C0E90123C0E90324446184610EE0D1F8BA
:1018500094506DB1D1F8805055B1C96E41B1076057
:10186000C0E90123C0E9032CC0E90524C461DBE71A
:1018700022E0D1F89460FEB1D1F88060E6B1D1F8F1
:101880008410C9B10760C0E90123C0E90554C461EF
:10189000C0E90323C8E77CB1D1F8804064B1D1F836
:1018A00084404CB1096F39B1076000F10C01C0E907
:1018B000012381E82C10B5E70120B8E700000020E3
:1018C000D8000020FEF790FEFFF7EDFEFFF712FDB7
:1018D000FFF78EFD0520FEF72FFC00F07BF8FFF7E9
:1018E0006FFF00F007FA0D4D4FF4FA7600243046F2
:1018F000FEF7B4FC00F000FB074600F0FBF9002FF8
:10190000F5D100F029F800F0F5F9FFF759FF08B11B
:10191000AC60ECE700F0EEF9E9E700000000002021
:1019200070B50C4900200446A1F1A00551F8302003
:10193000531C0AD001EBC0035B685E1C05D002EBB0
:10194000820205EB820242F82340401C0428EDDBB2
:1019500070BD0000D8000020F0B500241C4B2646C6
:1019600020462146002501EB81072A4603EB870725
:1019700057F822C0BCF1000F00D16D1C521C052A83
:10198000F6DB052D03D1641C0EB901260846491C5F
:101990000829E7DB002C19DD0126C4F1080513E056
:1019A00000EB8002002103EB8207021902EB8202A6
:1019B00003EB820252F821C047F821C042F82160AF
:1019C000491C0529F6DB401C8542E9DCF0BD00001E
:1019D0003800002010B50021084C012201EB8103E2
:1019E000002004EB830300BF43F82020401C05289F
:1019F000FADB491C0A29F1DB10BD00003800002089
:101A000010B5FFF7E7FFFFF7DBFE00F073F90249BF
:101A10000120886010BD0000000000200D4800B5C6
:101A2000C06840B1052806D0012807D0022808D098
:101A3000032809D00AE000F0D3F807E000F076F8B8
:101A400004E000F009F801E000F0FEF85DF804EBB6
:101A5000FFF766BF0000002030B5FFF795FE314A62
:101A6000314C1168C81701EB907020F003000B1A7D
:101A700004F1A00018D0012B28D0022B03693CD020
:101A800003EB830304EB8304436904EB830454F8FE
:101A9000104C012C30D14468641E44608468641E7C
:101AA0005B1C8460436125E0036903EB830504EB61
:101AB0008504456904EB85046469012C1CD1046824
:101AC0005B1C641E0460C468641C27E0036903EBAC
:101AD000830304EB8304436904EB830454F8044C4C
:101AE000012C09D14468641C44608468641C5B1E3A
:101AF0008460D7E7491C116030BD03EB830504EB1C
:101B00008504456904EB850454F8144C012CF3D189
:101B100004685B1E641C0460C468641EC0E903435F
:101B2000E8E700000000002038000020F0B5FFF7D3
:101B30002BFE294B294A196801EBD17020F00100D6
:101B4000814202F1A000056805EB850402EB8406E2
:101B5000446806EB84061DD156F8186C012E3AD164
:101B6000012D38D4012C36D4066906EB860702EB2A
:101B70008707426907EB8207BF69012F2BD1761CCB
:101B8000072E28DC521C042A25DCC0E90462641EEE
:101B90006D1E1CE0B669012E1DD16D1C072D1ADCCF
:101BA000641C042C17DC066906EB860702EB87072A
:101BB000426907EB820757F8187C012F0BD1012EE1
:101BC00009D4012A07D4521E761EC0E90462C0E976
:101BD0000054491C1960F0BD0000002038000020AE
:101BE00030B5FFF7D1FD164A164B116801EBD170E5
:101BF00020F00100814203F1A000846804EB840519
:101C000003EB8505C36805EB83050ED1AD69012D96
:101C10000AD1641C072C07DC5B1C042B04DC00BF0E
:101C2000C0E90243491C116030BD55F8185C012D14
:101C3000FAD1012CF8D4012BF6D45B1E641EEFE719
:101C4000000000203800002070B5FFF79DFD274BF5
:101C5000274A196801EBD17020F00100814202F19E
:101C6000A0001DD1046804EB840502EB85054268E1
:101C700005EB820555F8186C012E35D16D68012DE4
:101C800032D1012A30D4521E641EC0E9004242699A
:101C9000521E42610269521C02618269921C20E05C
:101CA000846804EB840402EB8402C46802EB8404BD
:101CB0006468012C18D1446802EB840252F8102C9D
:101CC000012A11D10268012A0ED4521C641CC0E9F9
:101CD00000244269521C42610269521E02618269FB
:101CE000921E491C8261196070BD00000000002036
:101CF000380000202DE9F05F7B4C7C4F02212278D8
:101D00003846FEF75DFC227904213846FEF758FC80
:101D1000227A08213846FEF753FC227B10213846F0
:101D2000FEF74EFC227C20213846FEF749FC227D3E
:101D300040213846FEF744FC227E80213846FEF7DB
:101D40003FFC227FB9153846FEF73AFC7D1594F822
:101D5000202029463846FEF733FC6E0094F82420F4
:101D600031463846FEF72CFC4FF4006894F82820E2
:101D700041463846FEF724FC4FF4805994F82C2055
:101D800049463846FEF71CFC4FF4005A94F83020C0
:101D900051463846FEF714FC4FF4804B94F834203B
:101DA00059463846FEF70CFC94F83820A90138460D
:101DB000FEF706FC4E4F94F83C2001213846FEF712
:101DC000FFFB94F8402002213846FEF7F9FB94F817
:101DD000442004213846FEF7F3FB94F848200821FC
:101DE0003846FEF7EDFB94F84C2010213846FEF7FC
:101DF000E7FB94F8502020213846FEF7E1FB94F8E9
:101E0000542040213846FEF7DBFB94F8582080210F
:101E10003846FEF7D5FB94F85C2069103846FEF78B
:101E2000CFFB94F8602029463846FEF7C9FB94F8AA
:101E3000642031463846FEF7C3FB94F868204146DB
:101E40003846FEF7BDFB94F86C2049463846FEF74D
:101E5000B7FB94F8702051463846FEF7B1FB94F872
:101E6000742059463846FEF7ABFB94F87820A90158
:101E70003846FEF7A5FB1F4D94F87C20012128462B
:101E8000FEF79EFB94F8802002212846FEF798FB7F
:101E900094F8842004212846FEF792FB94F88820C9
:101EA00008212846FEF78CFB94F88C201021284648
:101EB000FEF786FB94F8902020212846FEF780FB51
:101EC00094F8942040212846FEF77AFB94F8982055
:101ED00080212846FEF774FB94F89C20A91528461B
:101EE000BDE8F05FFEF76CBB380000200008014041
:101EF000000C014000100140F0B5FFF745FC002147
:101F00001D4E0C460B4606F1A00000BF50F83120D4
:101F1000551C12D000EBC1056D686F1C0DD002EB93
:101F2000820706EB870707EB85055B1C55F8145CF9
:101F3000012D02D1012A00D4641C491C0429E5DBCF
:101F4000A34214D15FF0000150F83120531C07D098
:101F500000EBC1035B685B1C02D0521E40F83120CD
:101F6000491C0429F0DBFFF7DBFC0120F0BDFFF783
:101F7000D7FC0020F0BD000038000020F0B5FFF7CE
:101F800003FC00211B4E0C460B4606F1A00000BFCF
:101F900050F831506A1C12D000EBC1025268571C35
:101FA0000DD005EB850506EB850505EB82055B1C71
:101FB00055F8045C012D02D1012A00D4641C491C8F
:101FC0000429E5DBA34213D15FF0000150F8312072
:101FD000521C06D000EBC10253685C1C01D05B1E92
:101FE0005360491C0429F1DBBDE8F040FFF798BCC1
:101FF000F0BD000038000020F0B5FFF7C5FB002160
:102000001B4E0C460B4606F1A00000BF50F83150A5
:102010006A1C12D000EBC1025268571C0DD005EBB0
:10202000850506EB850505EB82055B1C6D68012DBA
:1020300003D1521C042A00DC641C491C0429E5DB82
:10204000A34213D15FF0000150F83120521C06D09A
:1020500000EBC10253685C1C01D05B1C5360491C3F
:102060000429F1DBBDE8F040FFF75ABCF0BD0000E9
:1020700038000020000000000000000001020304FE
:10208000060708090000000001020304AC20000854
:1020900000000020240000006A170008D02000087B
:1020A00024000020F40400007A170008000000005B
:1020B000000000000100000000000000010000001E
:1020C00010000000000000000024F40000000000E8
:04000005080000ED02
:00000001FF
